:020000040800F2
:10000000C807002045010008CB1F0008C31E0008D8
:10001000C91F0008E1070008472100080000000090
:10002000000000000000000000000000CF1F0008DA
:100030007F08000800000000CD1F0008D11F000845
:100040005F0100085F0100085F0100085F01000810
:100050005F0100085F0100085F0100085F01000800
:100060005F0100085F0100085F0100085F010008F0
:100070005F0100085F0100085F0100085F010008E0
:100080005F0100085F0100085F0100085F010008D0
:100090005F0100085F0100085F0100085F010008C0
:1000A0005F0100085F0100085F0100085F010008B0
:1000B000392000085F0100085F0100085F010008A7
:1000C0005F0100085F0100085F0100085F01000890
:1000D0005F0100085F0100085F0100085F01000880
:1000E0005F0100085F0100085F0100085F01000870
:1000F0005F0100085F0100085F0100085F01000860
:100100005F0100085F0100085F0100085F0100084F
:100110005F0100085F010008452000085F0100083A
:100120005F0100085F010008490800085F0100083E
:10013000DFF80CD000F00EFA00480047FD27000859
:10014000C80700200648804706480047FEE7FEE74C
:10015000FEE7FEE7FEE7FEE7FEE7FEE7FEE7FEE777
:100160003720000831010008202A04DB203A21FA58
:1001700002F00021704721FA02F3D040C2F12002C0
:100180009140084319467047D2B201E000F8012BB4
:10019000491EFBD270470022F6E710B513460A4607
:1001A00004461946FFF7F0FF204610BD2DE9FE4F2B
:1001B000804681EA0300C00F0C46009021F0004108
:1001C00023F00045B8EB0200A94105D24046214684
:1001D00090461C460B46024623F00040104347D091
:1001E000270DC7F30A00C3F30A510290401A019089
:1001F00040286BDAC3F3130040F4801B009892464A
:1002000020B10023D2EB030A63EB0B0B0198594694
:10021000C0F14002504600F01FF906460D46504618
:100220005946019A00F027F910EB080061410024BB
:1002300087EA115284EAE7731A4340D0009A62B306
:10024000019A012A4FEA075215DC001B61EB0201FB
:100250004FF0004202EA0752CDE90042001C41F58E
:10026000801132462B4600F027F903B0BDE8F08F2D
:1002700040462146F9E7001B61EB0201001C41F5F5
:10028000801300185B412018A2F5001747EB03010B
:1002900040EAD570B6196D4111E06D084FEA360697
:1002A00045EAC0754FEA0752001B61EB0201001CD2
:1002B00041F5801149084FEA30000019514132469A
:1002C0002B4603B0BDE8F04F00F0E7B800980122DC
:1002D00040000023D0EB020263EBE073009821465C
:1002E0004FEAE074B8EB000061EB0401E9E783F04A
:1002F00000435BE781F0004158E72DE9FE4F81EABA
:10030000030404F0004421F0004100944FF0000B7E
:1003100023F0004350EA01045ED052EA03045BD0AC
:10032000C3F30A54C1F30A552C44A4F2F3340194E4
:10033000A0FB0254C1F3130141F48011C3F3130372
:1003400043F4801301FB024400FB034E840A970A26
:1003500044EA815447EA8357A4FB076802958D0A53
:1003600005FB07854FEA932C04FB0C542705029DDF
:100370004FEA065847EA1637B5EB08056EEB070C4F
:10038000870E920E47EA811742EA8312A7FB020109
:10039000B6EB0B0164EB00042B0D43EA0C335E1843
:1003A00044EB1C50DA465146E7FB0201C5F3130447
:1003B0004FEA0B3343EA14534FEA0432019C43EAF9
:1003C0000603A4F10C040294009CCDE900B400F0F3
:1003D00073F803B0BDE8F08F00200146F9E770B56F
:1003E00021F0004303430CD0C1F30A550024D5EBA0
:1003F000040564EB0403D617AD1AB34102DB0020F9
:10040000014670BD201841EB025170BD0EB540F29F
:10041000334102910021CDE900110A460B4600F05C
:100420004BF803B000BDC1F30A5210B5C1F313017C
:1004300040F2FF3341F480119A4201DA002010BDEE
:1004400040F233439A42A2F2334203DC5242FFF7B6
:100450008BFE10BD904010BD202A04DB203A00FA2C
:1004600002F1002070479140C2F1200320FA03F30B
:10047000194390407047202A06DBCB17203A41FAF7
:1004800002F043EAE07306E041FA02F3D040C2F121
:100490002002914008431946704710B5141E73F1AD
:1004A000000408DA401C41F1000192185B411A4334
:1004B00001D120F0010010BD2DE9F04D92469B4680
:1004C00011B1B1FA81F202E0B0FA80F22032904626
:1004D000FFF7C2FF04460F4640EA0A0041EA0B015B
:1004E00053465A46084313D0114653EA010019D027
:1004F000C8F140025046FFF737FE05460E4650460B
:1005000059464246FFF7A8FF084305D0012004E002
:1005100020463946BDE8F08D0020054346EAE076E6
:100520002C4337430A986305E40AA0EB0800002235
:10053000FD0A44EA47540A3002D500200146E9E7A3
:10054000010510196941DDE9084500196941BDE857
:10055000F04DA2E7064C074D06E0E06840F00103CD
:1005600094E8070098471034AC42F6D3FFF7E4FD57
:10057000E02B0008002C00082DE9F04D81EA03046F
:1005800004F0004B21F0004514464FF0000A23F020
:10059000004150EA050220D054EA01021DD0C5F303
:1005A0000A570246C5F31303C1F31300C1F30A56F9
:1005B00040F4801543F48013A7EB0608101BD646C1
:1005C00008F2FD3873EB050002D308F1010801E0E1
:1005D00092185B41B8F1000F03DA00200146BDE834
:1005E000F08D00204FF48011064684460EE0171B64
:1005F00073EB050705D3121B63EB050306434CEAB7
:10060000010C49084FEA300092185B4150EA01079B
:10061000EDD152EA030012D082EA040083EA050118
:10062000084305D0101BAB4106D20122002306E08F
:1006300000224FF0004302E06FF0010253101AEB6A
:1006400006004CEB085110EB0A0041EB0B01BDE832
:10065000F04DFFF722BF0EB5C10F80EAE0700844ED
:10066000CA07002140F233438DE80E000A460B46CC
:10067000FFF722FF03B000BD70B5C1F30A5201F0CD
:1006800000450024C1F3130140F2FF3341F480110F
:100690009A4201DA002070BD40F233439A42A2F23E
:1006A000334203DC5242FFF75FFD00E090402C43F1
:1006B000F1D0404270BD70B58C1810F8015B15F098
:1006C000070301D110F8013B2A1106D110F8012BC4
:1006D00003E010F8016B01F8016B5B1EF9D12B07E9
:1006E00005D40023521E0DD401F8013BFAE710F89F
:1006F000013BCB1A921C03E013F8015B01F8015B8C
:10070000521EF9D5A142D8D3002070BD70B5044661
:1007100000688168C943C90717D1816821F00101C8
:10072000816000F0FDFD05460AE000BF00F0F8FD25
:10073000401B022804D920688068C043C00706D047
:1007400020688068C043C007F0D0002070BDA06A58
:1007500040F01000A062E06A40F00100E062012079
:1007600070BD0000F8B50026044600960068816858
:10077000C943C9072DD0816841F001018160164845
:1007800016490068B0FBF1F000E0401E0090002820
:10079000FBD100F0C5FD054616E000BF00F0C0FD2E
:1007A000401B022810D920688068C043C0070BD0C6
:1007B000A06A40F01000A062E06A40F00100E06230
:1007C00084F824600120F8BD20688068C043C00719
:1007D000E4D10020F8BD00004402002040420F0098
:1007E000FEE710B5446A204600F010FA012020719F
:1007F00010BD10B5446A204600F0E2F901202071D6
:1008000010BD10B5446A206940F004002061204604
:1008100000F0FEF90120207110BD10B5446A206976
:1008200040F004002061204600F0CCF90120207146
:1008300010BD10B5406A00F0EAF910BD10B5406A6D
:1008400000F0BFF910BD0000014800F0BBBA000085
:100850008403002030B590F840500124AC40C56BB3
:100860006C60046863604368102B036803D0996070
:100870000068C26030BD9A600068C16030BD7047DA
:1008800070470000F8B50024009490F82420254615
:10089000012A12D0012280F824204A681F23072A47
:1008A0000DD20668776B521E02EB820293409F4383
:1008B0000B6893401F43776319E00220F8BD066878
:1008C0000D2A0AD2376BD21F02EB820293409F435C
:1008D0000B6893401F43376309E0F76A0D3A02EB58
:1008E000820293409F430B6893401F43F7620A685C
:1008F000072306680A2A0AD3F7680A3A02EB42027B
:1009000093409F438B6893401F43F76008E037692B
:1009100002EB420293409F438B6893401F43376131
:100920000A68102A01D0112A20D1124B02689A427B
:1009300017D193681B0219D4936843F400039360A2
:100940000968102912D10C490C4A0968B1FBF2F16F
:1009500001EB8101490000E0491E00910029FBD113
:1009600004E0816A41F020018162012480F8245072
:100970002046F8BD002401404402002040420F0000
:100980000068C06C704700002DE9F04104004FF092
:1009900000057FD0A06A002628B9E66284F82460AA
:1009A000204600F081F82046FFF7B0FEA16AC90694
:1009B00000D420B1A06A40F01000A0626AE0A16AF1
:1009C00021F4885141F00201A162334923688B422E
:1009D000E16904D1B1F5402F01D14FF40021277B0B
:1009E0004FF4807C41EA470261680A43A16861458F
:1009F00008D0012906D0002194F814E0BEF1010FBF
:100A000002D00AE06146F7E7C7B1A76A47F02007BE
:100A1000A762E76A47F00107E7625F6827F4694762
:100A20000F435F60236899681C4F394011439960F8
:100A3000A16861450BD0012909D00CE0DFF860E026
:100A4000A7690EEB47370F4347F40061E5E7218ABA
:100A50000D05A5F580152168CB6A23F470032B439F
:100A6000CB62216889680F4B1940914208D1E66238
:100A7000A16A21F0020141F00101A162BDE8F0810B
:100A8000A06A20F0020040F01000A062E06A40F08E
:100A90000100E0620120F1E7003C0140FDF7E1FFC9
:100AA00000E0FFFFFE0E1FFF00B585B000210091A2
:100AB00001910291039100680E49884218D10E48B5
:100AC000816941F400718161816901F400710491CF
:100AD000816941F0040181618069694600F0040088
:100AE00004900820009003200190044800F016FBB9
:100AF00005B000BD00240140001002400008014084
:100B000070B5044690F8240001280DD0012084F827
:100B100024002046FFF726FE02004FF0000005D01B
:100B200084F82400104670BD022070BDA16A40F216
:100B30000123994341F48071A1621F4D23681F492D
:100B4000AB4218D10E6816F4702F14D0A66A46F482
:100B50008016A6620E68760505D5A66A26F40056AC
:100B600046F48056A662A66AF6040AD5E66A26F01E
:100B70000606E66206E0A66A26F48016A6625E68AD
:100B8000E9E7E06284F824006FF002001860206852
:100B90008368C3F34243072B05D1A84208D10968F3
:100BA00011F4702F04D0816841F480118160B9E79D
:100BB000816841F4A001F9E70028014004240140C4
:100BC00070477047704770B54379012B1CD00126E0
:100BD00046710223037105682B6802F0100440F689
:100BE000FE72A2409343D1E900210A43A2401A4376
:100BF0002A6001680A68C023A3409A430A6006710C
:100C000000214171084670BD022070BD70477047D9
:100C1000704770B5040003D02079002510B105E0BD
:100C2000012070BD6571204600F008F80220207197
:100C3000256101202071002070BD0000F0B585B055
:100C400000260546009601960296039600681A490A
:100C500088422ED11949C86940F00050C861C8695E
:100C600000F000500490886940F0040088618869B1
:100C7000102700F0040004900320CDE900706946BD
:100C80000F4800F04BFA104C0E48C4E900078020D2
:100C9000C4E9026040002061800060612020C4E956
:100CA0000606204600F0B2F908B1FFF7E9FDAC6096
:100CB000656205B0F0BD0000007400400010024005
:100CC0000008014030040240840300202DE9F04177
:100CD00004460D461746617900220698012920D066
:100CE0000126667102212171F5B1D4F80CC02F499B
:100CF000CCF82810D4F80CC02D49CCF82C10D4F81E
:100D00000CC02C49CCF830102168D1F800C04CF050
:100D1000805CC1F800C068B304282ED0082831D107
:100D20002EE00220BDE8F081D4F808C02249CCF8BA
:100D30002810D4F808C02149CCF82C10D4F808C0E9
:100D40001F49CCF830102168D1F800C04CF4805C09
:100D5000C1F800C020B1042805D0082808D105E05A
:100D60002268083204E022680C3201E02268103266
:100D7000A06808E02268143204E02268183201E01A
:100D800022681C32E068394600F07EF9002161716A
:100D900020B1216941F004012161C3E721680A689B
:100DA00005F010039E4032430A60BBE7F3070008DA
:100DB0003D0800081B080008E30700083308000886
:100DC000030800082DE9F05FC16B0A6801680B6831
:100DD000046C4FF0040808FA04F8844D844E854FE3
:100DE000DFF814C2DFF81492DFF814A2DFF814B2AF
:100DF000DFF814E218EA020F65D05FEA437862D5A3
:100E00000A68920603D40A6822F004020A60DFF836
:100E1000F0814FF48062016808F114081301140294
:100E2000414524D9A9420DD0B1420FD0B9421AD0C0
:100E3000614515D0494515D0514501D1120312E045
:100E4000594501D104220EE0714501D140220AE04A
:100E50006D4D1435A94206D06B4A2832914201D11A
:100E60001A4600E022466749091F0A6029E0A942A4
:100E700013D0B14215D0B94220D061451BD04945AD
:100E80001BD0514502D14FF4800217E0414502D1F9
:100E90004FF0806212E0594501D104220EE0714505
:100EA00001D140220AE0584D1435A94206D0564AD5
:100EB0002832914201D11A4600E022464B490839B6
:100EC0004A60C16A71E04FF0020808FA04F818EAB3
:100ED000020F70D05FEA83786DD50A68920606D457
:100EE0000A6822F00A020A60012180F82110DFF866
:100EF00010814FF40072016808F114081301140204
:100F0000414524D9A9420DD0B1420FD0B9421AD0DF
:100F1000614515D0494515D0514501D1120312E064
:100F2000594501D102220EE0714501D120220AE08B
:100F3000354D1435A94206D0334A2832914201D1A9
:100F40001A4600E022462F49091F0A6029E0A942FB
:100F500013D0B14215D0B94220D061451BD04945CC
:100F60001BD0514502D14FF4001217E0414502D188
:100F70004FF0007212E0594501D102220EE0714596
:100F800001D120220AE0204D1435A94206D01E4A84
:100F90002832914201D11A4600E02246134908390D
:100FA0004A60002180F82010816A00291CD0BDE829
:100FB000F05F0847FFE70825A540154214D01A073F
:100FC00012D50A6822F00E020A6090F84020C36B26
:100FD000012101FA02F25A60816380F82110002198
:100FE00080F82010016BE0E7BDE8F09F08000240A8
:100FF0001C00024030000240440002405800024001
:101000006C000240080402401C04024030B560B18C
:101010001A4B026814219A4209D2194B1344B3FBAC
:10102000F1F18900016417490AE0012030BD134B3A
:101030005B421344B3FBF1F1890001640F490839A5
:10104000C163022180F82110136843F6F0718B43CD
:10105000F0E901142143D0E902452C4321430469FE
:1010600021434469214384692143194311600021CC
:101070004163012242770177084630BD08040240EF
:10108000F8FFFDBF0000024070B5044690F8200054
:10109000002501280CD0012084F8200094F821605C
:1010A0000020012E06D084F820000225284670BDBD
:1010B000022070BD022684F82160A06320680668C3
:1010C00026F0010606602046FFF7C4FBE06A002810
:1010D0002068016802D041F00E0106E021F0040111
:1010E00001602068016841F00A0101602068016820
:1010F00041F001010160D9E770B5044600F010F934
:101100000546601C02D004480078044400F008F949
:10111000401BA042FAD370BD380200202DE9F84FE1
:10112000DFF8C891002409F1040A0AF1040B2346F0
:101130000F270BF1040ED1E00125A54006EA0502B8
:10114000AA4276D1DFF8A8C14E68A6EB0C08664526
:101150002BD00DDC032E34D005DC36B3012E19D094
:10116000022E2FD11BE0112E16D0122E2AD119E0FB
:10117000B8F5881F19D006DCB8F5803F15D0B8F552
:10118000801F1FD111E0B8F5001F0ED0B8F5041F65
:1011900018D10AE0CB6815E0CB681B1D12E0CB68C4
:1011A00008330FE0CB680C330CE08B682BB1012BBC
:1011B0004FF0080303D0456104E0042302E0056119
:1011C00000E00023FF2A01D8064601E000F10406F2
:1011D0004FEA840501D9A5F12005D6F8008007FA69
:1011E00005FC28EA0C0803FA05F548EA0508C6F8E4
:1011F00000804D68ED0070D53E4DAE6946F00106A9
:10120000AE61AD6924F0030605F0010500953A4D85
:1012100006EB050CDCF80850A607360F07FA06F8AF
:1012200025EA0805DFF8D480404503D14FF00008D7
:1012300025E052E0DFF8C880404502D14FF00108B8
:101240001DE0DFF8C080404502D14FF0020816E0F3
:10125000DFF8B480404502D14FF003080FE0DFF81B
:10126000AC80404502D14FF0040808E0DFF8A080D0
:10127000404502D14FF0050801E04FF0060808FA9A
:1012800006F848EA0508CCF808804D68D9F80060EF
:10129000ED034D4601D5164300E096432E604D68A0
:1012A000DAF80060AD03554601D5164300E09643D9
:1012B0002E604D68DBF80060ED025D4601D51643F7
:1012C00000E096432E604D68DEF80060AD02754682
:1012D00001D5164300E096432E60641C0A6816464A
:1012E000E2407FF429AFBDE8F88F00000004014020
:1012F00000001110001002400000014000080140F1
:10130000000C014000100140001401400018014091
:10131000001C01400AB1016170470904FBE70000AD
:101320000148806870470000380200200248816848
:10133000027811448160704738020020074810B5D8
:10134000016841F010010160032000F075F80020F1
:1013500000F006F800F024F8002010BD0020024044
:1013600070B50D4D04464FF47A712878B1FBF0F05A
:101370000A490968B1FBF0F000F042FB48B9102CB3
:1013800007D200222146501E00F036F800206C6083
:1013900070BD012070BD0000380200204402002012
:1013A0000C4808B5816941F001018161816901F052
:1013B00001010091C16941F08051C161C06900F033
:1013C000805000900448416821F0E06141F0807154
:1013D000416008BD0010024000000140002809DB08
:1013E00000F01F02012191404009800000F1E0203F
:1013F000C0F8001170470000F0B40E4B1B680C469B
:10140000C3F30223C3F10705042D00D90425191DD8
:10141000072901D2002300E0DB1E012606FA05F1B0
:10142000491E214099409E40761E16403143F0BC33
:1014300000F09EBE0CED00E0064900F007020868CF
:101440004FF6FF03184040EA0220034A10430860A9
:10145000704700000CED00E00000FA052DE9F843AC
:1014600005460078354CC00754D0E0690026C0001E
:1014700008D4E06940F08050E061E069012600F0A6
:10148000805000902E480168C90512D4016880463A
:1014900041F480710160FFF743FF074605E000BF9C
:1014A000FFF73EFFC01B642823D8D8F80000C00512
:1014B000F6D5206A10F4407021D0A98801F440715B
:1014C00081421CD0206A1F49012220F440700A602A
:1014D00000220A602062C00711D0FFF721FF0746F3
:1014E00041F2883808E000BFFFF71AFFC11B4145F1
:1014F00002D90320BDE8F883206A8007F4D5206A6A
:10150000696820F44070084320621EB1E06920F051
:101510008050E0612878800705D56068A96820F4CC
:101520004040084360602878C00605D56068696956
:1015300020F48000084360600020DBE700100240D8
:1015400000700040400442422DE9F0470F4605007C
:1015500061D0434E306800F00700B84209D23068CD
:1015600020F0070038433060306800F00700B842D0
:1015700051D128683B4C810712D5400703D56068DC
:1015800040F4E06060602878000703D5606840F4AC
:10159000605060606068A96820F0F00008436060F7
:1015A0002878C00728D06868012810D02168022850
:1015B00010D0890700292EDA616821F00301014368
:1015C0006160FFF7ADFE804641F288390DE0216889
:1015D0008903EFE78901EDE7FFF7A2FEA0EB080121
:1015E000494502D90320BDE8F0876068696800F0CA
:1015F0000C00B0EB810FEFD1306800F00700B8426B
:101600000BD9306820F0070038433060306800F0B4
:101610000700B84201D00120E5E72878400705D54A
:101620006068E96820F4E06008436060287800079B
:1016300006D56068296920F4605040EAC100606006
:1016400000F018F86168084AC1F30311515CC84002
:101650000649086006480068FFF782FE0020C2E7DE
:101660000020024000100240B02A0008440200207E
:101670003C02002012A185B00FC98DE80F0014A014
:10168000144A006804905168134801F00C03042BBD
:1016900010D0082B0ED1C1F38343C9031DF80300FA
:1016A0000AD5516804AAC1F34041515C0A4A50432B
:1016B000B0FBF1F005B0704708494843FAE7000075
:1016C00002030405060708090A0B0C0D0E0F101083
:1016D000010200000010024000127A0000093D00E3
:1016E0002DE9F84F040070D02078C04DC00749D0D4
:1016F0006868C0F38100012807D06868C0F38100E2
:10170000022809D16868C00306D52868800339D546
:1017100060680028E7D035E06068B0F5803F0BD006
:1017200010B1B0F5A02F11D0286820F480302860C7
:10173000286820F4802002E0286840F48030286087
:10174000606890B1FFF7ECFD06460AE0286840F4B7
:1017500080202860F0E700BFFFF7E2FD801B6428CF
:1017600073D828688003F7D50CE0FFF7D9FD06464B
:1017700005E000BFFFF7D4FD801B6428F0D828687F
:101780008003F7D420789A4E80074FF001094FF07C
:10179000000839D5686810F00C0F07D06868C0F3EE
:1017A0008100022809D16868C00306D42868800730
:1017B00014D52069012808D110E02069B0B1C6F81D
:1017C0000090FFF7ADFD074605E00AE1FFF7A8FD31
:1017D000C01B0228C4D828688007F7D5286861692B
:1017E00020F0F80040EAC10028600DE0C6F8008053
:1017F000FFF796FD074604E0FFF792FDC01B0228A5
:1018000023D828688007F7D4207800072CD579489A
:10181000A169D9B1C0F80090FFF782FD074604E046
:10182000FFF77EFDC01B02280FD8686A8007F7D536
:1018300071484FF4FA510068B0FBF1F0009000BF1E
:101840000098411E0091FAD20EE080E0C0F80080BE
:10185000FFF766FD074604E0FFF762FDC01B0228A4
:1018600075D8686A8007F7D42078400760D5E869A2
:101870000027C00008D4E86940F08050E861E869BA
:10188000012700F0805000905C480168C90513D41E
:101890000168834641F480710160FFF741FD824693
:1018A00006E000BFFFF73CFDA0EB0A0064284ED81D
:1018B000DBF80000C005F5D5E06801280AD008B1C2
:1018C000052813D0286A20F001002862286A20F039
:1018D000040002E0286A40F001002862E06841F25A
:1018E000883B98B1FFF71CFD82460BE0286A40F068
:1018F00004002862EEE700BFFFF712FDA0EB0A012B
:1019000059455AD8286A8007F6D50CE0FFF708FD3C
:10191000824605E0FFF704FDA0EB0A0159454CD8CB
:10192000286A8007F6D41FB1E86920F08050E8618A
:10193000E06988B36968C1F38101022944D00228B3
:10194000C6F8608004D0FFF7EBFC044638E034E0D2
:10195000FFF7E6FC074604E0FFF7E2FCC01B0228A5
:101960002BD828688001F7D4206AB0F5803F05D1D4
:101970006868A16820F4003008436860D4E9080171
:101980000843696821F4741108436860C6F86090E0
:10199000FFF7C6FC044606E025E000BFFFF7C0FCE9
:1019A000001B022809D828688001F7D51BE000BF7A
:1019B000FFF7B6FC001B022802D90320BDE8F88F10
:1019C00028688001F4D40EE00128F7D06868226A04
:1019D00000F48031914204D1616A00F470108842B1
:1019E00001D00120EAE70020E8E7000000100240F3
:1019F0000000424280044242440200200070004045
:101A000010B5401EB0F1807F01D3012010BD4FF012
:101A1000E02460610F21601700F0AAFB0020A061A4
:101A200007202061002010BD7047704770B590F806
:101A30003C20012A2CD0012480F83C40022280F86E
:101A40003D2003685A689D6822F070060A68324398
:101A50005A60104B02689A420ED00F4B9A420BD03C
:101A6000B2F1804F08D00D4B9A4205D00C4B9A42F0
:101A700002D00C4B9A4204D1496825F080031943E7
:101A8000916080F83D40002180F83C10084670BD10
:101A9000022070BD002C01400034014000040040D1
:101AA00000080040000C004010B5040003D094F87A
:101AB0003D0010B107E0012010BD002084F83C007B
:101AC000204600F01FF8022084F83D00211D206808
:101AD00000F0BEFA012084F8460084F83E0084F845
:101AE0003F0084F8400084F8410084F8420084F804
:101AF000430084F8440084F8450084F83D00002049
:101B000010BD000008B501681448B1F1804F14D031
:101B1000134A914220D1C16941F01001C161C069ED
:101B2000002200F01000009001213620FFF764FC35
:101B30003620BDE80840FFF751BCC16941F0010102
:101B4000C161C069002200F00100009006211C2044
:101B5000FFF752FC1C20ECE708BD0000001002401B
:101B60000010004090F83D10012901D0012070477D
:101B7000022180F83D1000680E4988420ED00E49BF
:101B800088420BD0B0F1804F08D00C49884205D074
:101B90000B49884202D00B49884204D1816801F088
:101BA0000701062903D0016841F00101016000200E
:101BB00070470000002C0140003401400004004048
:101BC00000080040000C004090F83D10012901D0B1
:101BD00001207047022180F83D100168CA6842F078
:101BE0000102CA6000680E4988420ED00D49884241
:101BF0000BD0B0F1804F08D00B49884205D00B497B
:101C0000884202D00A49884204D1816801F0070164
:101C1000062903D0016841F00101016000207047EE
:101C2000002C014000340140000400400008004046
:101C3000000C004070B5044690F83C00012817D015
:101C4000012584F83C50022084F83D002068826819
:101C500022F0770222F47F4282600868502830D058
:101C60000DDC20284DD005DC98B310283BD148E08E
:101C7000022070BD302844D0402834D139E060289B
:101C800028D0702806D0B0F5805F2CD0B0F5005F6A
:101C900029D10AE0CB68D1E90121206800F01EFAC1
:101CA0002068816841F0770109E0CB68D1E9012122
:101CB000206800F013FA2068816841F48041816057
:101CC00011E0CA684968206800F01AFA50212068BB
:101CD00007E016E0CA684968206800F022FA60212F
:101CE000206800F005FA84F83D50002084F83C009C
:101CF00070BDCA684968206800F002FA4021206877
:101D0000EFE7226801461046EBE7704770B50446DE
:101D1000006801694FF00005C943890715D4C168FF
:101D2000C943890711D4E91E016101202077206889
:101D300080698007204602D0FFF7E7FF04E000F04B
:101D400098F8204600F096F8257720680169C94385
:101D5000490717D4C168C943490713D46FF0040178
:101D60000161022020772068806910F4407F2046BE
:101D700002D0FFF7CAFF04E000F07BF8204600F035
:101D800079F8257720680169C943090716D4C16825
:101D9000C943090712D46FF00801016104202077BC
:101DA0002068C0698007204602D0FFF7AEFF04E03C
:101DB00000F05FF8204600F05DF8257720680169A3
:101DC000C943C90617D4C168C943C90613D46FF003
:101DD00010010161082020772068C06910F4407F5D
:101DE000204602D0FFF791FF04E000F042F82046C1
:101DF00000F040F8257720680169C943C90708D178
:101E0000C168C943C90704D1891E0161204600F099
:101E100033F820680169C943090609D4C168C94378
:101E2000090605D46FF0800101612046FFF7FCFD33
:101E300020680169C943490609D4C168C9434906F4
:101E400005D46FF040010161204600F039F82068A8
:101E50000169C94389060BD4C168C943890607D4FF
:101E60006FF0200101612046BDE87040FFF7DDBD45
:101E700070BD70477047000010B500680E4A904270
:101E800019D10E4B4CF25034A3F5FC70417833F865
:101E90001130B4FBF3F39404E36200F1080333F868
:101EA0001130D362491CC9B241701F2903D10021EE
:101EB00041700121416010BD00100040F801002078
:101EC0007047FEE73EB500210D48009101910B4A95
:101ED0000291026001248160047301754FF4602255
:101EE0000461C2614160FEF74FFD0320CDE90004AB
:101EF000029069460248FEF7C5FC3EBD0024014041
:101F00004C02002030B585B000241848009401949C
:101F100002940394816941F004018161816901F0B7
:101F200004010491816941F020018161816901F01E
:101F300020010491816941F00801816180690C4DA3
:101F400000F008000490002240212846FFF7E2F943
:101F5000402000900120CDE9010402200390694651
:101F60002846FFF7DBF805B030BD00000010024046
:101F70000014014010B586B000241248009401946A
:101F80000294039404944FF080410594016047212A
:101F9000C0E9011442F20F71C0E90314802181618C
:101FA000FFF782FD4FF48050009069460548FFF727
:101FB00041FE2020CDE9040404A90248FFF736FDC4
:101FC00006B010BD90020020FEE7704770477047D2
:101FD000FFF7ACB930B595B028216846FEF7DBF8BD
:101FE00014210AA8FEF7D7F818210FA8FEF7D3F896
:101FF00001210804CDE90010002402940225049177
:10200000CDE907504FF4E01009906846FFF768FBF0
:102010000F20CDE90A056802CDE90C4002210AA88B
:102020000E94FFF791FAA80311900F950FA8FFF7F0
:1020300015FA15B030BD70470148FFF767BE0000C4
:10204000900200200148FFF761BE0000D802002086
:10205000F0B502681C4B1D4D1D4E1E4F1E4C4FF01F
:10206000804C984209D0A04207D0604505D0A842D4
:1020700003D0B04201D0B84204D122F0700E4A68B9
:1020800042EA0E02984209D0A04207D0604505D02E
:10209000A84203D0B04201D0B84203D122F4407527
:1020A000CA682A434D6922F080022A4302608A6886
:1020B000C2620A688262984201D0A04201D10969D5
:1020C000016301214161F0BD002C0140000400408A
:1020D00000080040000C00400034014010B5846846
:1020E00042EA032224F47F440A432243826010BD63
:1020F000826822F070020A4342F007018160704753
:1021000010B5036A046A24F001040462846924F0AF
:10211000F00444EA021423F00A020A4384610262D2
:1021200010BD10B5036A23F0100303628369046ACB
:1021300023F4704343EA023224F0A00343EA01117E
:102140008261016210BDFEE7490050EAC12018BF5C
:1021500004204A0D18BF40F0010040F2FF72B2EBBC
:10216000515F08BF40F00200012808BF05207047FA
:102170000907090E002804DB00F1E02080F80014B4
:10218000704700F00F0000F1E02080F8141D704748
:102190002DE9F74F144694B00021C4E902111599B6
:1021A000079121F00045C9498D4206DC1599C4E923
:1021B000000117B00020BDE8F08FC549DFF814A377
:1021C000A9423CDD0799C44E0029C44FC44A159961
:1021D000534619DDFEF78BF8554506D0C14AC24B70
:1021E000FEF785F8C4E900010AE04FF0D352BE4B78
:1021F000FEF77DF832463B46FEF779F8C4E9000168
:1022000017B00120BDE8F08FFDF7D0FF554506D08F
:10221000B44AB54BFDF7CAFFC4E900010AE04FF02C
:10222000D352B14BFDF7C2FF32463B46FDF7BEFF2E
:10223000C4E9000117B04FF0FF30BDE8F08FAB49A3
:10224000A942159978DB21F0004183468846A84AC7
:10225000A84BFEF752F80022A74BFDF7A7FFFEF7A9
:102260000BFA0990FEF7F7F906460F469C4A5346CB
:10227000FEF743F843465A46FEF73CF880468A4646
:10228000984A994B30463946FEF737F82A0D012512
:102290000B9242465346FEF72DF8032DC4E9000188
:1022A00039D00B98C1F30A51401A05EB4511113989
:1022B000814230DA9148C346784400EB0510CDF8EE
:1022C0000CA00C90D0E9002330463946FEF715F8F3
:1022D00002460B460491069058460399FEF707F80C
:1022E00080468A4602460B4658460399FDF7FFFF93
:1022F000049B069AFDF7FBFF83460C980391394631
:10230000D0E902233046FDF7F8FF5A46039BFDF75C
:10231000EEFF6D1CBDE707980028A2BF099817B013
:10232000BDE8F08F616881F000416160099817B0E5
:102330004042BDE8F08FFFE784461598C1F31301D2
:10234000C0F30A50A0F2F5304FEA601800F01F0603
:10235000C6F12000139000200690079041F4801EE3
:1023600005206D4676B1664A08EB00017A4452F8C2
:10237000213002EB8101B3404A68139922FA01F13E
:10238000194305E05F4908EB0002794451F8221037
:10239000A1FB0E27A1FB0C131A449A4234BF012360
:1023A000002303EB070A05EB8003D3E901B70F44D1
:1023B0008F4234BF0121002193448B4411B19345D6
:1023C00002D903E0934501D2012100E00021C3E9D5
:1023D00001B7514445F82010011EA0F10100C1DCF5
:1023E0000298059F00F10050800F12900298DDE9DD
:1023F00003568000FEF72FF9834628460D91FEF71D
:1024000005F86FF01D02FDF7EAFFCDE90E01304639
:10241000FDF7FCFF6FF03D02FDF7E1FF80468A46C5
:102420003846FDF7F3FF6FF05D02FDF7D8FF074672
:10243000424653461191FDF7B9FEDDE90E23FDF743
:10244000B5FE5A460D9BFDF7B1FE00250E465A46D5
:1024500028460D9BFDF74BFFDDE90E23FDF747FFF7
:1024600042465346FDF743FF3A46119BFDF742FFB4
:10247000DFF898A0244A5346FDF73FFF07468846F9
:10248000234A244B31462846FDF737FF3A46434658
:10249000FDF78CFE074688464FF0A842534631466A
:1024A0002846FDF72AFF3A464346FDF77FFE159A78
:1024B00012F0004F04D0129A81F000415242129261
:1024C000C4E90001129817B0BDE8F08FFB21E93F85
:1024D0007CD90240FB21F93F7370032E8A19A33B7C
:1024E000000040543163621A61B4D03DFB21394190
:1024F00083C8C96D305FE43F0000E03F340800004E
:10250000B007000092070000182D4454FB21F93D4C
:102510003326A611460B113C2DE9FF4D21F0004852
:1025200007460C46B8F1795F08DAFEF7A5F80028EF
:1025300001BF0020324904B0BDE8F08D3A46234681
:1025400010461946FDF7D9FE054602462D480E46AF
:102550000B460621784400F05DF82A463346FDF725
:10256000CCFEDDE9022382468B4638462146FDF744
:10257000C4FE04460F4652465B4628463146FDF7E8
:10258000BCFE22463B46FDF7B2FE07468A464FF0A8
:10259000FF3228463146FDF722FF1B4A90450ADAF2
:1025A0003A465346FDF7A3FE04B00022BDE8F04DC5
:1025B000134BFDF79FBE154A4245A8BFA8F500156D
:1025C0004FF00004B8BF124D22462B46FDF78FFE98
:1025D0000646884622462B4600200949FDF787FE1D
:1025E00004460D463A46534630464146FDF77FFEC7
:1025F00004B022462B46BDE8F04DFDF77BBE00003F
:102600000000F03F680500003333D33F0000E93F8E
:102610000000D23F2DE9F0414F1E00EBC7010446F8
:10262000D1E9000115461E4637F006020DD02A46B4
:102630003346FDF762FE7F1E04EBC703D3E9002398
:10264000FDF7B4FD37F00602F1D1022F25D0042F9B
:1026500013D0062F18BFBDE8F0812A463346FDF798
:102660004CFED4E90A23FDF7A1FD2A463346FDF7C7
:1026700044FED4E90823FDF799FD2A463346FDF7C9
:102680003CFED4E90623FDF791FD2A463346FDF7CB
:1026900034FED4E90423FDF789FD2A463346FDF7CD
:1026A0002CFED4E90223FDF781FD2A463346FDF7CF
:1026B00024FED4E90023BDE8F041FDF777BD00001A
:1026C0002DE9FF4D054621F0004084B00C46B0F1E5
:1026D000795F0BDA2846FFF737FD042808BF00F0C2
:1026E0006FF8284608B02146BDE8F08D2A460B4613
:1026F0001046FDF702FE06460F462A462346FDF722
:10270000FCFD804626488A4632463B4605217844F1
:10271000FFF780FF83461098029160B3214A224B55
:1027200040465146FDF7E9FDCDE900015A464046D5
:102730005146029BFDF7E1FD82468846DDE9060130
:102740004FF0FF32FDF74BFE52464346FDF7CFFDFB
:1027500032463B46FDF7D1FDDDE90623FDF7C7FD17
:10276000DDE90023FDF7C3FD08B02A462346BDE896
:10277000F04DFDF7BFBD0B465A4630463946FDF7D2
:10278000BCFD084A084BFDF711FD42465346FDF7D4
:10279000B4FD08B02A462346BDE8F04DFDF706BD5E
:1027A000A6040000495555555555C5BF0122FDF7F2
:1027B00016BE0022134610461146FDF7DDBE00008E
:1027C000024A00201107FDF70ABE000001FDFFFFCD
:1027D00002E008C8121F08C1002AFAD170477047EA
:1027E000002001E001C1121F002AFBD17047000048
:1027F0000149086070470000480200201CB5FEF740
:102800009DFDFFF7E7FBFFF77DFB7948416941F04C
:10281000020141614069002200F00200009011466F
:102820003A20FEF7E9FD3A20FEF7D8FD002672496E
:1028300000967048019608600846FEF7EAF92420E1
:10284000CDE90006002269466B48FEF7BCF9FFF7A8
:1028500091FB694800965C3068490196016041F639
:102860001F41C0E9011642F20F718661C160FFF796
:102870001BF96148009669465C300196FFF7D6F86F
:10288000FFF720FB5C4D01245D4FDFF87881DFF816
:102890007891A4352046FDF7B9FD3A464346FDF749
:1028A0002CFD00F0B5F80B22FDF799FD00224B46F8
:1028B000FDF71DFDFDF7B7FD25F81400641CE4B21B
:1028C000322CE7D94C481430FFF74CF94A4A3223EE
:1028D000A432002148480096FEF7F8F946485C30DB
:1028E000FFF772F944483038FEF70AF9474C04F50F
:1028F000D975A4F146077868012874D13E4830386C
:10290000FEF73EF880B27880C0EBC00040F6FE7162
:10291000B0FBF1F0C0B23870072858D2DFE800F001
:10292000040F1A27333F4B005FF0000034F81010FB
:1029300025F81010401CC0B21F28F7D352E0002029
:1029400004EB4001C98F25F81010401CC0B21F28AD
:10295000F6D347E05FF0000004EB4001B1F87C10D3
:1029600025F81010401CC0B21F28F5D33AE0002013
:1029700004EB4001B1F8BA1025F81010401CC0B2A9
:102980001F28F5D32EE0002004EB4001B1F8F81029
:1029900025F81010401CC0B21F28F5D322E00020FB
:1029A00004EB4001B1F8361125F81010401CC0B2FC
:1029B0001F28F5D316E0002004EB4001B1F8741194
:1029C00025F81010401CC0B21F28F5D30AE00020E3
:1029D00004EB4001B1F8F81025F81010401CC0B20B
:1029E0001F28F5D37E600A20FEF786FB83E70000F0
:1029F00000100240007400407C02002000100040E3
:102A0000842A357BA015C03F0000F03F460000201F
:102A100000B5254B21F0004287B09A4203DC00222A
:102A2000134600922BE0214B9A4208D140B94FF057
:102A30000100FFF7DDFEFFF7BCFE07B000BD03DBC2
:102A4000FFF7B4FE07B000BD02AAFFF7A1FB10F02C
:102A500003014FF001000DD0012914D002291AD032
:102A60000DF1080C9CE80F00FFF756FD07B081F050
:102A7000004100BD0DF1080C00909CE80F00FFF72D
:102A80001FFE07B000BD0DF1080C9CE80F00FFF71A
:102A900043FD07B000BD0DF1080C00909CE80F004D
:102AA000FFF70EFEE2E70000FB21E93F0000F07FA8
:102AB00000000000000000000102030406070809EE
:102AC0004C5555555555A53F7751C1166CC156BF4C
:102AD0009015CB19A001FA3EAD529C804F7E92BE5C
:102AE000C4B1B4BD9EEE213ED43888BEE9FAA8BD7B
:102AF00000004054FB21F93F3163621A61B4D03DBC
:102B00000000601A61B4D03D7370032E8A19A33B94
:102B10000000002E8A19A33BC14920259A837B39E6
:102B200000000000000000006E83F9A22915444E49
:102B3000D15727FCC0DD34F5999562DB4190433CC9
:102B4000AB6351FE61C5BBDE3A6E24B7E0D24D42A5
:102B5000EA2E49061C92D1091CEB1DFE3EA729B1A5
:102B6000F53582E88444BB2E26709CE9417E5FB433
:102B700039D69139F43953838B5F849C3B28F9BD56
:102B8000FF97F81F0F9805DE8B112FEF1F6D0A5A64
:102B9000CF7E366DB709CB27663F464F2DEA5F9E45
:102BA000C7BA27757BF1E5EBF739073DEA92528A00
:102BB000B15FFB6B085D8D1FA6F810111111813FED
:102BC000D561C119A0012ABF7DFEB157E31DC73EE3
:102BD000EB9C2B8AE6E55ABE7CD5CF5A3AD9E53D27
:102BE000002C0008000000204C020000B60600087F
:102BF000F82C00084C0200207C050000E0270008AB
:102C000072042DE204C4090429024B8813086902E6
:102C10002910A920C90E168813102720120112208E
:102C20001A2404122B3A290C69101A311269103A2D
:102C3000371E2916690E491E3A41041A49041257D3
:102C4000BA52101A621269103A6E1E2916690E499C
:102C50001E3A82041A930412AEBAA5101AC412695D
:102C6000103ADC1E2916690E491E2B05010438088E
:102C7000250105015E014A0C69101A871269103A94
:102C8000B81E2916690E491E2B0B020438084B0288
:102C90000B02BA02930C69107C0F03BA101A700C65
:102CA0003A9316690E491E2B100404680996041005
:102CB000046E051E05101A92107C22066E101AE092
:102CC0000C2B1E0516690E491E2B20080468092CC2
:102CD000092008DC0A3C0A101A24107C440CDC1081
:102CE0002BC00D1E2916690E491E093CF821290426
:082CF00082105324F4000000DF
:0400000508000131BD
:00000001FF
